:100000000C945D000C9485000C9485000C94850084
:100010000C9485000C9485000C9485000C9485004C
:100020000C9485000C9485000C9485000C940705B5
:100030000C9485000C9485000C9485000C9485002C
:100040000C94BD040C9485000C948B040C946504F2
:100050000C9485000C9485000C9485000C9485000C
:100060000C9485000C94850000000008000201003B
:100070000003040700000000000000000000000072
:10008000250028002B0000000000240027002A0083
:10009000040404040404040402020202020203032E
:1000A0000303030301020408102040800102040836
:1000B0001020010204081020C80511241FBECFEF34
:1000C000D8E0DEBFCDBF11E0A0E0B1E0E2E3F7E1B0
:1000D00002C005900D92AE33B107D9F722E0AEE32E
:1000E000B1E001C01D92AF32B207E1F710E0CDE5FB
:1000F000D0E004C02197FE010E948C0BCC35D107C3
:10010000C9F70E9410060C94970B0C94000090E025
:10011000FC01EC55FF4F2491FC01E057FF4F849107
:10012000882399F090E0880F991FFC01EA57FF4F50
:10013000A591B491FC01E458FF4F859194918FB73C
:10014000F894EC91E22BEC938FBF0895E0917D0140
:10015000F0917E010190F081E02D682F8DE791E014
:100160000994CF92DF92EF92FF920F931F93CF9358
:10017000DF936C017A018B01C0E0D0E0CE15DF0582
:1001800089F0D8016D918D01D601ED91FC9101901E
:10019000F081E02DC6010995892B11F47E0102C082
:1001A0002196ECCFC701DF91CF911F910F91FF9066
:1001B000EF90DF90CF900895089580E090E008954B
:1001C000FC01538D448D252F30E0842F90E0821B5D
:1001D000930B541710F0CF96089501970895FC01E2
:1001E000918D828D981761F0828DDF01A80FB11D6E
:1001F0005D968C91928D9F5F9F73928F90E0089592
:100200008FEF9FEF0895FC01918D828D981731F04B
:10021000828DE80FF11D858D90E008958FEF9FEF9F
:100220000895FC01918D228D892F90E0805C9F4F75
:10023000821B91098F73992708958DE791E00E94A1
:10024000110121E0892B09F420E0822F0895FC019F
:10025000848DDF01A80FB11DA35ABF4F2C91848D4F
:1002600090E001968F739927848FA689B7892C9384
:10027000A089B1898C9180648C93938D848D98131F
:1002800006C00288F389E02D80818F7D80830895E8
:10029000EF92FF920F931F93CF93DF93EC0181E0D6
:1002A000888F9B8D8C8D981305C0E889F989808192
:1002B00085FD24C0F62E0B8D10E00F5F1F4F0F73CE
:1002C0001127E02E8C8DE8120CC00FB607FCFACF78
:1002D000E889F989808185FFF5CFCE010E94270149
:1002E000F1CF8B8DFE01E80FF11DE35AFF4FF08235
:1002F0000B8FEA89FB898081806207C0EE89FF89C4
:100300006083E889F98980818064808381E090E05E
:10031000DF91CF911F910F91FF90EF900895CF93B0
:10032000DF93EC01888D8823C9F0EA89FB898081FD
:1003300085FD05C0A889B9898C9186FD0FC00FB6CF
:1003400007FCF5CF808185FFF2CFA889B9898C9110
:1003500085FFEDCFCE010E942701E7CFDF91CF913E
:10036000089580E090E0892B29F00E941D01811101
:100370000C940000089590E0FC01E859FF4F34917F
:10038000FC01EC55FF4F2491FC01E057FF4FE49135
:10039000EE2309F43BC0332339F1333091F038F4C4
:1003A0003130A9F0323001F584B58F7D12C037307D
:1003B00091F03830A1F03430B9F4809180008F7D15
:1003C00003C0809180008F77809380000DC084B53A
:1003D0008F7784BD09C08091B0008F7703C0809172
:1003E000B0008F7D8093B000F0E0EE0FFF1FE45867
:1003F000FF4FA591B4918FB7F894EC91611103C0B0
:1004000020952E2301C02E2B2C938FBF08958E3064
:1004100008F08E508770806480937C0080917A0011
:10042000806480937A0080917A0086FDFCCF809171
:1004300078002091790090E0922B08953FB7F894CE
:100440008091690190916A01A0916B01B0916C015A
:1004500026B5A89B05C02F3F19F00196A11DB11D1F
:100460003FBFBA2FA92F982F8827820F911DA11D5A
:10047000B11DBC01CD0142E0660F771F881F991F97
:100480004A95D1F70895CF92DF92EF92FF92CF93E2
:10049000DF93EC01603282E078070CF03DC077FD1D
:1004A00006C0653B71052CF064EB70E002C060E0B3
:1004B00070E0898128E830E06901C81AD10887FD19
:1004C000D394CC0CDD1CCC0CDD1C0D2C000CEE08E8
:1004D000FF088A8128E532E0281B310987FD339522
:1004E000220F331F220F331FC901330FAA0BBB0B7F
:1004F0009C01AD012C193D094E095F09DB010E94E9
:100500006F0924EB30E040E050E00E944509C20E44
:10051000D31EE41EF51EB60188818C3080F59981CA
:1005200048E850E0491B510997FD5395440F551F6A
:10053000440F551F6417750784F09A8128E532E04F
:10054000291B310997FD3395220F331F220F331FCB
:10055000AB01261737070CF4A90142505109440F8B
:10056000551F2FB7F89490E0FC01EE0FFF1F8E0F80
:100570009F1FFC01E05CFE4F528341832FBFDF9140
:10058000CF91FF90EF90DF90CF9008950F931F933E
:10059000CF93DF931F92CDB7DEB78C01DC018C9136
:1005A0008C3008F055C0862F69830E948700F801BF
:1005B0008081E82FF0E09F01220F331FE20FF31F2D
:1005C000E05CFE4F69816F739081907C692B608342
:1005D000D80111961C92119712961C926CE00E9401
:1005E000790BBCE08B9FB001112440E050E09A01F0
:1005F000260F371FF901EE0FFF1F2E0F3F1FF901C6
:10060000E05CFE4F908196FD16C04F5F5F4F4C300F
:10061000510569F781110FC01092800082E080932C
:1006200081001092850010928400B19A80916F0031
:10063000826080936F00D801EC91F0E0CF01880FC9
:10064000991FE80FF91FE05CFE4F80818064808372
:10065000F80180810F90DF91CF911F910F91089544
:10066000FC0190913F019C30A0F481E0890F8093C0
:100670003F019083892F90E0FC01EE0FFF1F8E0F4A
:100680009F1FFC01E05CFE4F88EB9BE0928381831F
:1006900008958FEF80830895009769F0FC01019021
:1006A0000020E9F73197AF01481B590BBC018DE7DA
:1006B00091E00C94B10080E090E008958F929F92B9
:1006C000AF92BF920F931F93CF93DF93CDB7DEB757
:1006D000A1970FB6F894DEBF0FBECDBF19A242306E
:1006E00008F44AE08E010F5D1F4F842E912CA12C3F
:1006F000B12CA50194010E947709E62FB901CA0126
:1007000001501109EA3014F4E05D01C0E95CD80140
:10071000EC93232B242B252B61F7C8010E944C035B
:10072000A1960FB6F894DEBF0FBECDBFDF91CF917B
:100730001F910F91BF90AF909F908F9008958F92CF
:100740009F92AF92BF92CF92DF92EF92FF92CF93A0
:10075000DF936B017C019B01AC010E94740B882329
:1007600019F084E191E027C046015701E894B7F8F9
:100770002FEF3FEF4FE75FE7C501B4010E94740B15
:1007800081110DC02FEF3FEF4FE75FE7C501B401C7
:100790000E94150A18161CF488E191E00CC02FEF96
:1007A0003FEF4FE75FE4C701B6010E94020B181646
:1007B00074F48CE191E0DF91CF91FF90EF90DF90A6
:1007C000CF90BF90AF909F908F900C944C032FEFE1
:1007D0003FEF4FE75FECC701B6010E94150A87FDA6
:1007E000E8CF20E030E0A901C701B6010E94150A58
:1007F00087FF09C08DE20E94A600EC01F7FAF09491
:10080000F7F8F09402C0C0E0D0E02AE037ED43EA08
:100810005BE3C701B6010E94A9094B015C010E947C
:10082000210A6B017C010E94500A9B01AC01C501A9
:10083000B4010E94A8094B015C014AE0C701B6015E
:100840000E945E03C80FD91F8EE20E94A600C80F47
:10085000D91F20E030E040E251E4C501B4010E941C
:10086000070B4B015C010E94210A6B01E12CF12C6A
:100870004AE0C701B6010E945E03C80FD91FC70135
:10088000B6010E94500A9B01AC01C501B4010E944F
:10089000A80920E030E040E251E40E94070B0E94EA
:1008A000210A80E090E04AE00E945E038C0F9D1FC9
:1008B000DF91CF91FF90EF90DF90CF90BF90AF90FE
:1008C0009F908F9008950E94920B1F920F920FB6E7
:1008D0000F9211242F933F934F935F936F937F93C6
:1008E0008F939F93AF93BF93EF93FF938DE791E027
:1008F0000E942701FF91EF91BF91AF919F918F913E
:100900007F916F915F914F913F912F910F900FBE0B
:100910000F901F9018951F920F920FB60F921124EF
:100920002F938F939F93EF93FF93E0918D01F0911D
:100930008E018081E0919301F091940182FD12C0BB
:100940009081809196018F5F8F732091970182171C
:1009500051F0E0919601F0E0E358FE4F958F8093BF
:10096000960101C08081FF91EF919F918F912F910E
:100970000F900FBE0F901F9018951F920F920FB6F9
:100980000F9211242F933F938F939F93AF93BF9315
:100990008091650190916601A0916701B091680115
:1009A0003091640123E0230F2D3720F40196A11D1F
:1009B000B11D05C026E8230F0296A11DB11D20938D
:1009C00064018093650190936601A0936701B093E1
:1009D00068018091690190916A01A0916B01B091C9
:1009E0006C010196A11DB11D8093690190936A016C
:1009F000A0936B01B0936C01BF91AF919F918F91C8
:100A00003F912F910F900FBE0F901F9018951F923E
:100A10000F920FB60F9211242F933F934F935F9332
:100A20006F937F938F939F93AF93BF93EF93FF93B6
:100A300080913E0187FF05C01092850010928400CE
:100A40001BC020913E01022E000C330B80913F0110
:100A500090E02817390784F480913E01082E000C9D
:100A6000990BFC01EE0FFF1F8E0F9F1FFC01E05C36
:100A7000FE4F808186FD15C080913E018F5F80937F
:100A80003E0120913E01022E000C330B80913F016C
:100A900090E028173907C4F480913E018C3064F14E
:100AA00013C080913E01082E000C990BFC01EE0F43
:100AB000FF1F8E0F9F1FFC01E05CFE4F808160E0F6
:100AC0008F730E94BB01D8CF8091840090918500E4
:100AD000049680349C4918F480E49CE905C0809118
:100AE00084009091850004969093890080938800FB
:100AF0008FEF80933E013BC02091840030918500B0
:100B000080913E01082E000C990BFC01EE0FFF1F97
:100B10008E0F9F1FFC01E05CFE4F81819281820F4E
:100B2000931F909389008093880080913E01082E46
:100B3000000C990BFC01EE0FFF1F8E0F9F1FFC0195
:100B4000E05CFE4F808186FF12C080913E01082E3E
:100B5000000C990BFC01EE0FFF1F8E0F9F1FFC0175
:100B6000E05CFE4F808161E08F730E94BB01FF91CA
:100B7000EF91BF91AF919F918F917F916F915F9115
:100B80004F913F912F910F900FBE0F901F9018958E
:100B9000EDE7F1E01382128288EE93E0A0E0B0E08E
:100BA00084839583A683B78386E091E091838083D5
:100BB00085EC90E09587848784EC90E09787868722
:100BC00080EC90E0918B808B81EC90E0938B828B1A
:100BD00082EC90E0958B848B86EC90E0978B868BF3
:100BE000118E128E138E148E8CE292E00E943003CE
:100BF00089E292E00E94300386E292E00E94300394
:100C000083E292E00E94300380E292E00E9430038F
:100C10008DE192E00E9430038AE192E00C9430036F
:100C2000CF93DF93CDB7DEB760970FB6F894DEBFF2
:100C30000FBECDBF789484B5826084BD84B58160D9
:100C400084BD85B5826085BD85B5816085BD809197
:100C50006E00816080936E0010928100809181000F
:100C60008260809381008091810081608093810007
:100C7000809180008160809380008091B1008460C9
:100C80008093B1008091B00081608093B00080912A
:100C90007A00846080937A0080917A0082608093E9
:100CA0007A0080917A00816080937A0080917A0046
:100CB000806880937A001092C10062E070E08CE25C
:100CC00092E00E94C60263E070E086E292E00E9439
:100CD000C60264E070E089E292E00E94C60265E02C
:100CE00070E083E292E00E94C60266E070E080E27B
:100CF00092E00E94C60267E070E08DE192E00E94FF
:100D0000C60288E00E948700E0918D01F0918E017B
:100D100082E08083E0918901F0918A011082E09164
:100D20008B01F0918C0187E0808310929501E09116
:100D30009101F091920186E08083E0918F01F09122
:100D40009001808180618083E0918F01F09190011A
:100D5000808188608083E0918F01F0919001808193
:100D600080688083E0918F01F091900180818F7D78
:100D70008083812C912C34EBA32E32E4B32E898214
:100D80009A82AB82BC828D829E82AF82B8867501C8
:100D9000640161E088E00E94BB0181E00E940702DB
:100DA00024EB30E0DC010E94850B2FEF33E040E0C4
:100DB00050E00E9445093093010120930001B901E0
:100DC0008CE292E00E94430282E00E9407022EE33E
:100DD00030E0DC010E94850B2FEF33E040E050E073
:100DE0000E944509CA01B9016E5171098109910931
:100DF0000E94520A2B013C016093790170937A01A1
:100E000080937B0190937C0120E030E0A9010E9457
:100E1000020B181604F520E030E044E353E4698146
:100E20007A818B819C810E94150A87FF14C02DEC6A
:100E30003CEC4CE45DE3C301B2010E94070B9B0153
:100E4000AC0169817A818B819C810E94A9096983A7
:100E50007A838B839C8320E030E0A901C301B20137
:100E60000E94150A87FF1FC020E030E0A9016981B8
:100E70007A818B819C810E94020B1816A4F42DECC0
:100E80003CEC4CE45DE3C301B2010E94070B9B0103
:100E9000AC0169817A818B819C810E94A909698357
:100EA0007A838B839C8369817A818B819C810E9468
:100EB0001A0A86E292E00E94430283E00E9407023F
:100EC0002EE330E0DC010E94850B2FEF33E040E0A1
:100ED00050E00E944509CA01B9016E5171098109AA
:100EE00091090E94520A2B013C0160937501709395
:100EF0007601809377019093780120E030E0A9019A
:100F00000E94020B181604F520E030E044E353E49D
:100F10006D817E818F8198850E94150A87FF14C09C
:100F20002FE832EC45EF5CE3C301B2010E94070BEE
:100F30009B01AC016D817E818F8198850E94A909FA
:100F40006D837E838F83988720E030E0A901C30101
:100F5000B2010E94150A87FF1FC020E030E0A901FE
:100F60006D817E818F8198850E94020B1816A4F4F2
:100F70002FE832EC45EF5CE3C301B2010E94070B9E
:100F80009B01AC016D817E818F8198850E94A909AA
:100F90006D837E838F8398876D817E818F81988515
:100FA0000E941A0A89E292E00E94430284E00E94B1
:100FB0000702092E000CAA0BBB0BBC01CD0126E0D9
:100FC000660F771F881F991F2A95D1F72FEF33E0FF
:100FD00040E050E00E944509CA01B9016052710920
:100FE000810991090E94520A2B013C016093710111
:100FF00070937201809373019093740120E030E04C
:10100000A9010E94020B1816D4F420E030E044E35A
:1010100053E4C701B6010E94150A87FF10C02FE8EC
:1010200032EC45EF5CE3C301B2010E94070B9B0168
:10103000AC01C701B6010E94A9096B017C0120E047
:1010400030E0A901C301B2010E94150A87FF19C04F
:1010500020E030E0A901C701B6010E94020B18167A
:1010600084F42FE832EC45EF5CE3C301B2010E9447
:10107000070B9B01AC01C701B6010E94A9096B01D6
:101080007C01C701B6010E941A0A83E292E00E9425
:101090004302A701960160E070E084E393E40E94BC
:1010A000A80969877A878B879C870E941A0A80E241
:1010B00092E00E94430285E00E9407022EE330E0A6
:1010C000DC010E94850B2FEF33E040E050E00E94EE
:1010D0004509CA01B9016E517109810991090E943E
:1010E000520A2B013C0160936D0170936E01809355
:1010F0006F019093700120E030E0A9010E94020B83
:101100001816D4F420E030E044E353E4C501B40100
:101110000E94150A87FF10C02FE832EC45EF5CE310
:10112000C301B2010E94070B9B01AC01C501B401D0
:101130000E94A9094B015C0120E030E0A901C30134
:10114000B2010E94150A87FF19C020E030E0A90112
:10115000C501B4010E94020B181684F42FE832EC8A
:1011600045EF5CE3C301B2010E94070B9B01AC0198
:10117000C501B4010E94A9094B015C01C501B4017C
:101180000E941A0A8DE192E00E94430280E291E0FF
:101190000E944C034090000150900101052C000C6E
:1011A0006608770877FE0CC08DE20E94A6006627CD
:1011B0007727CB0164197509860997094AE003C0AE
:1011C0004AE0C301B2010E945E0385E291E00E9401
:1011D0004C0369817A818B819C810E949F038AE202
:1011E00091E00E944C036D817E818F8198850E94E1
:1011F0009F038FE291E00E944C03C701B6010E9459
:101200009F0384E391E00E944C0369857A858B8576
:101210009C850E949F0389E391E00E944C03C501D5
:10122000B4010E949F030E941E029B01AC018AE050
:10123000482E512C612C712C2D873E874F87588B5F
:101240000E941E022D853E854F855889DC01CB0109
:10125000821B930BA40BB50B883E9340A105B105EF
:1012600070F091E0491A51086108710828513C4F0B
:101270004F4F5F4F4114510461047104E9F641146A
:10128000510461047104C1F684CD052E97FB1EF450
:1012900000940E945C0957FD07D00E94770907FC63
:1012A00003D04EF40C945C095095409530952195EF
:1012B0003F4F4F4F5F4F0895909580957095619582
:1012C0007F4F8F4F9F4F08950E949909A59F900DC2
:1012D000B49F900DA49F800D911D11240895B7FF18
:1012E0000C9464090E946409821B930B0895A1E287
:1012F0001A2EAA1BBB1BFD010DC0AA1FBB1FEE1F90
:10130000FF1FA217B307E407F50720F0A21BB30BDA
:10131000E40BF50B661F771F881F991F1A9469F756
:1013200060957095809590959B01AC01BD01CF01B2
:101330000895A29FB001B39FC001A39F700D811DAE
:101340001124911DB29F700D811D1124911D0895CE
:101350005058BB27AA270E94C0090C94C80A0E94B3
:10136000BA0A38F00E94C10A20F039F49F3F19F4FC
:1013700026F40C94B70A0EF4E095E7FB0C94B10A3E
:10138000E92F0E94D90A58F3BA1762077307840736
:10139000950720F079F4A6F50C94FB0A0EF4E0957D
:1013A0000B2EBA2FA02D0B01B90190010C01CA011F
:1013B000A0011124FF27591B99F0593F50F4503ECA
:1013C00068F11A16F040A22F232F342F4427585FBC
:1013D000F3CF469537952795A795F0405395C9F7D4
:1013E0007EF41F16BA0B620B730B840BBAF091508C
:1013F000A1F0FF0FBB1F661F771F881FC2F70EC02B
:10140000BA0F621F731F841F48F4879577956795FD
:10141000B795F7959E3F08F0B0CF9395880F08F0E9
:101420009927EE0F9795879508950E948D0A08F4E5
:1014300081E008950E94210A6894B1110C94FC0A7D
:1014400008950E94E10A88F09F5798F0B92F9927D4
:10145000B751B0F0E1F0660F771F881F991F1AF09F
:10146000BA95C9F714C0B13091F00E94FB0AB1E0FF
:1014700008950C94FB0A672F782F8827B85F39F0FE
:10148000B93FCCF3869577956795B395D9F73EF438
:1014900090958095709561957F4F8F4F9F4F0895E0
:1014A000E89409C097FB3EF49095809570956195FE
:1014B0007F4F8F4F9F4F9923A9F0F92F96E9BB27B4
:1014C0009395F695879577956795B795F111F8CF30
:1014D000FAF4BB0F11F460FF1BC06F5F7F4F8F4F9B
:1014E0009F4F16C0882311F096E911C0772321F091
:1014F0009EE8872F762F05C0662371F096E8862F29
:1015000070E060E02AF09A95660F771F881FDAF77F
:10151000880F9695879597F90895990F0008550FAC
:10152000AA0BE0E8FEEF16161706E807F907C0F069
:1015300012161306E407F50798F0621B730B840B71
:10154000950B39F40A2661F0232B242B252B21F44B
:1015500008950A2609F4A140A6958FEF811D811DEB
:10156000089597F99F6780E870E060E008959FEF25
:1015700080EC089500240A9416161706180609062A
:10158000089500240A9412161306140605060895F9
:10159000092E0394000C11F4882352F0BB0F40F481
:1015A000BF2B11F460FF04C06F5F7F4F8F4F9F4FC1
:1015B000089557FD9058440F551F59F05F3F71F043
:1015C0004795880F97FB991F61F09F3F79F08795AA
:1015D0000895121613061406551FF2CF4695F1DF33
:1015E00008C0161617061806991FF1CF86957105C3
:1015F000610508940895E894BB2766277727CB01F7
:1016000097F908950E948D0A08F48FEF08950E94BB
:101610001A0B0C94C80A0E94BA0A38F00E94C10A38
:1016200020F0952311F00C94B10A0C94B70A112400
:101630000C94FC0A0E94D90A70F3959FC1F3950F90
:1016400050E0551F629FF001729FBB27F00DB11D46
:10165000639FAA27F00DB11DAA1F649F6627B00DD6
:10166000A11D661F829F2227B00DA11D621F739FBF
:10167000B00DA11D621F839FA00D611D221F749FCD
:101680003327A00D611D231F849F600D211D822F14
:10169000762F6A2F11249F5750409AF0F1F088233B
:1016A0004AF0EE0FFF1FBB1F661F771F881F915068
:1016B0005040A9F79E3F510580F00C94B10A0C945C
:1016C000FC0A5F3FE4F3983ED4F3869577956795DF
:1016D000B795F795E7959F5FC1F7FE2B880F911D92
:1016E0009695879597F908950E948D0A880B990B16
:1016F0000895991B79E004C0991F961708F0961B6E
:10170000881F7A95C9F7809508950E949909B7FFB7
:101710000895821B930B0895EE0FFF1F0590F4911F
:10172000E02D099481E090E0F8940C94970BF894E4
:02173000FFCFE9
:101732005A00000000004801B100E0008F011101D1
:10174200EF0003016E616E00696E66006F766600DF
:10175200207C323A00207C333A00207C343A00204C
:0E1762007C353A00207C363A00207C373A0075
:00000001FF
