:100000000C945D000C9485000C9485000C94850084
:100010000C9485000C9485000C9485000C9485004C
:100020000C9485000C9485000C9485000C94E503D9
:100030000C9485000C9485000C9485000C9485002C
:100040000C949B030C9485000C9469030C9443035B
:100050000C9485000C9485000C9485000C9485000C
:100060000C9485000C94850000000008000201003B
:100070000003040700000000000000000000000072
:10008000250028002B0000000000240027002A0083
:10009000040404040404040402020202020203032E
:1000A0000303030301020408102040800102040836
:1000B0001020010204081020A60411241FBECFEF57
:1000C000D8E0DEBFCDBF11E0A0E0B1E0E2E4F4E1B2
:1000D00002C005900D92A431B107D9F722E0A4E146
:1000E000B1E001C01D92A530B207E1F710E0CDE507
:1000F000D0E004C02197FE010E94140ACC35D1073C
:10010000C9F70E94EE040C941F0A0C94000090E0C2
:10011000FC01EC55FF4F2491FC01E057FF4F849107
:10012000882399F090E0880F991FFC01EA57FF4F50
:10013000A591B491FC01E458FF4F859194918FB73C
:10014000F894EC91E22BEC938FBF0895CF92DF925D
:10015000EF92FF920F931F93CF93DF936C017A017D
:100160008B01C0E0D0E0CE15DF0589F0D8016D919C
:100170008D01D601ED91FC910190F081E02DC60139
:100180000995892B11F47E0102C02196ECCFC7019D
:10019000DF91CF911F910F91FF90EF90DF90CF9063
:1001A0000895089580E090E00895FC01538D448DFA
:1001B000252F30E0842F90E0821B930B541710F012
:1001C000CF96089501970895FC01918D828D98171F
:1001D00061F0828DDF01A80FB11D5D968C91928D2B
:1001E0009F5F9F73928F90E008958FEF9FEF089528
:1001F000FC01918D828D981731F0828DE80FF11DF1
:10020000858D90E008958FEF9FEF0895FC01918D0B
:10021000228D892F90E0805C9F4F821B91098F7304
:100220009927089583E591E00E94060121E0892B3A
:1002300009F420E0822F0895FC01848DDF01A80FCE
:10024000B11DA35ABF4F2C91848D90E001968F73FE
:100250009927848FA689B7892C93A089B1898C911D
:1002600080648C93938D848D981306C00288F389E3
:10027000E02D80818F7D80830895EF92FF920F9310
:100280001F93CF93DF93EC0181E0888F9B8D8C8D42
:10029000981305C0E889F989808185FD24C0F62E70
:1002A0000B8D10E00F5F1F4F0F731127E02E8C8D09
:1002B000E8120CC00FB607FCFACFE889F9898081F3
:1002C00085FFF5CFCE010E941C01F1CF8B8DFE0181
:1002D000E80FF11DE35AFF4FF0820B8FEA89FB898B
:1002E0008081806207C0EE89FF896083E889F9898F
:1002F00080818064808381E090E0DF91CF911F91C5
:100300000F91FF90EF900895CF93DF93EC01888DCC
:100310008823C9F0EA89FB89808185FD05C0A88909
:10032000B9898C9186FD0FC00FB607FCF5CF80818F
:1003300085FFF2CFA889B9898C9185FFEDCFCE01D9
:100340000E941C01E7CFDF91CF91089580E090E0FB
:10035000892B29F00E94120181110C94000008954C
:1003600090E0FC01E859FF4F3491FC01EC55FF4F40
:100370002491FC01E057FF4FE491EE2309F43BC0C8
:10038000332339F1333091F038F43130A9F0323081
:1003900001F584B58F7D12C0373091F03830A1F06F
:1003A0003430B9F4809180008F7D03C0809180004B
:1003B0008F77809380000DC084B58F7784BD09C08E
:1003C0008091B0008F7703C08091B0008F7D8093C3
:1003D000B000F0E0EE0FFF1FE458FF4FA591B4917D
:1003E0008FB7F894EC91611103C020952E2301C0C2
:1003F0002E2B2C938FBF08958E3008F08E5087706F
:10040000806480937C0080917A00806480937A007D
:1004100080917A0086FDFCCF809178002091790050
:1004200090E0922B08953FB7F89480913F0190910E
:100430004001A0914101B091420126B5A89B05C0A1
:100440002F3F19F00196A11DB11D3FBFBA2FA92F53
:10045000982F8827820F911DA11DB11DBC01CD01D0
:1004600042E0660F771F881F991F4A95D1F70895BC
:10047000CF92DF92EF92FF92CF93DF93EC01603245
:1004800082E078070CF03DC077FD06C0653B710542
:100490002CF064EB70E002C060E070E0898128E835
:1004A00030E06901C81AD10887FDD394CC0CDD1C5B
:1004B000CC0CDD1C0D2C000CEE08FF088A8128E511
:1004C00032E0281B310987FD3395220F331F220F9D
:1004D000331FC901330FAA0BBB0B9C01AD012C19B3
:1004E0003D094E095F09DB010E94FC0724EB30E067
:1004F00040E050E00E94D207C20ED31EE41EF51E5B
:10050000B60188818C3080F5998148E850E0491B1C
:10051000510997FD5395440F551F440F551F6417FC
:10052000750784F09A8128E532E0291B310997FD8F
:100530003395220F331F220F331FAB0126173707C6
:100540000CF4A90142505109440F551F2FB7F894DC
:1005500090E0FC01EE0FFF1F8E0F9F1FFC01EA5E73
:10056000FE4F528341832FBFDF91CF91FF90EF90D9
:10057000DF90CF9008950F931F93CF93DF931F9237
:10058000CDB7DEB78C01DC018C918C3008F055C002
:10059000862F69830E948700F8018081E82FF0E0B0
:1005A0009F01220F331FE20FF31FEA5EFE4F6981A6
:1005B0006F739081907C692B6083D80111961C9297
:1005C000119712961C926CE00E94010ABCE08B9F6E
:1005D000B001112440E050E09A01260F371FF901C5
:1005E000EE0FFF1F2E0F3F1FF901EA5EFE4F9081B5
:1005F00096FD16C04F5F5F4F4C30510569F7811172
:100600000FC01092800082E08093810010928500DC
:1006100010928400B19A80916F00826080936F0085
:10062000D801EC91F0E0CF01880F991FE80FF91F76
:10063000EA5EFE4F808180648083F80180810F90A4
:10064000DF91CF911F910F910895FC0190911501B9
:100650009C30A0F481E0890F809315019083892F4D
:1006600090E0FC01EE0FFF1F8E0F9F1FFC01EA5E62
:10067000FE4F88EB9BE09283818308958FEF808308
:1006800008950E941A0A1F920F920FB60F9211241A
:100690002F933F934F935F936F937F938F939F938A
:1006A000AF93BF93EF93FF9383E591E00E941C010A
:1006B000FF91EF91BF91AF919F918F917F916F913A
:1006C0005F914F913F912F910F900FBE0F901F9010
:1006D00018951F920F920FB60F9211242F938F939C
:1006E0009F93EF93FF93E0916301F0916401808108
:1006F000E0916901F0916A0182FD12C090818091C0
:100700006C018F5F8F7320916D01821751F0E09122
:100710006C01F0E0ED5AFE4F958F80936C0101C0A3
:100720008081FF91EF919F918F912F910F900FBE3C
:100730000F901F9018951F920F920FB60F921124D1
:100740002F933F938F939F93AF93BF9380913B01E0
:1007500090913C01A0913D01B0913E0130913A0150
:1007600023E0230F2D3720F40196A11DB11D05C0F4
:1007700026E8230F0296A11DB11D20933A01809314
:100780003B0190933C01A0933D01B0933E018091C9
:100790003F0190914001A0914101B0914201019629
:1007A000A11DB11D80933F0190934001A093410191
:1007B000B0934201BF91AF919F918F913F912F9143
:1007C0000F900FBE0F901F9018951F920F920FB6AB
:1007D0000F9211242F933F934F935F936F937F93C7
:1007E0008F939F93AF93BF93EF93FF9380911401E7
:1007F00087FF05C010928500109284001BC02091D5
:100800001401022E000C330B8091150190E0281783
:10081000390784F480911401082E000C990BFC0117
:10082000EE0FFF1F8E0F9F1FFC01EA5EFE4F8081BF
:1008300086FD15C0809114018F5F80931401209173
:100840001401022E000C330B8091150190E0281743
:100850003907C4F4809114018C3064F113C0809185
:100860001401082E000C990BFC01EE0FFF1F8E0FD8
:100870009F1FFC01EA5EFE4F808160E08F730E9443
:10088000B001D8CF80918400909185000496803487
:100890009C4918F480E49CE905C080918400909103
:1008A0008500049690938900809388008FEF809351
:1008B00014013BC020918400309185008091140187
:1008C000082E000C990BFC01EE0FFF1F8E0F9F1FCF
:1008D000FC01EA5EFE4F81819281820F931F90930B
:1008E00089008093880080911401082E000C990BD8
:1008F000FC01EE0FFF1F8E0F9F1FFC01EA5EFE4FF3
:10090000808186FF12C080911401082E000C990B83
:10091000FC01EE0FFF1F8E0F9F1FFC01EA5EFE4FD2
:10092000808161E08F730E94B001FF91EF91BF91D0
:10093000AF919F918F917F916F915F914F913F9177
:100940002F910F900FBE0F901F901895E3E5F1E0E7
:100950001382128288EE93E0A0E0B0E08483958356
:10096000A683B78386E091E09183808385EC90E055
:100970009587848784EC90E09787868780EC90E069
:10098000918B808B81EC90E0938B828B82EC90E05A
:10099000958B848B86EC90E0978B868B118E128ED4
:1009A000138E148E82E092E00E9425038FEF91E077
:1009B0000E9425038CEF91E00E94250389EF91E0CE
:1009C0000E94250386EF91E00E94250383EF91E0CA
:1009D0000E94250380EF91E00C942503CF93DF93D1
:1009E000CDB7DEB72C970FB6F894DEBF0FBECDBFE4
:1009F000789484B5826084BD84B5816084BD85B5FA
:100A0000826085BD85B5816085BD80916E00816005
:100A100080936E00109281008091810082608093AB
:100A200081008091810081608093810080918000AD
:100A30008160809380008091B10084608093B100D8
:100A40008091B00081608093B00080917A008460D2
:100A500080937A0080917A00826080937A008091FE
:100A60007A00816080937A0080917A008068809318
:100A70007A001092C10062E070E082E092E00E9491
:100A8000BB0263E070E08CEF91E00E94BB0264E087
:100A900070E08FEF91E00E94BB0265E070E089EFAB
:100AA00091E00E94BB0266E070E086EF91E00E9458
:100AB000BB0267E070E083EF91E00E94BB0288E038
:100AC0000E948700E0916301F091640182E08083DD
:100AD000E0915F01F09160011082E0916101F0917D
:100AE00062018FEC808310926B01E0916701F091BD
:100AF000680186E08083E0916501F0916601808164
:100B000080618083E0916501F09166018081886059
:100B10008083E0916501F091660180818068808327
:100B2000E0916501F091660180818F7D8083812C49
:100B3000912C34EBA32E32E4B32E89829A82AB82BD
:100B4000BC828D829E82AF82B8867501640161E0AD
:100B500088E00E94B00181E00E94FC0124EB30E0BB
:100B6000DC010E940D0A2FEF33E040E050E00E94CC
:100B7000D2073093010120930001B90182E092E095
:100B80000E94380282E00E94FC012EE330E0DC018A
:100B90000E940D0A2FEF33E040E050E00E94D207A0
:100BA000CA01B9016E517109810991090E94DF08DA
:100BB0002B013C0160934F017093500180935101D0
:100BC0009093520120E030E0A9010E948F0918168D
:100BD00004F520E030E044E353E469817A818B81BD
:100BE0009C810E94A20887FF14C02DEC3CEC4CE4D1
:100BF0005DE3C301B2010E9494099B01AC016981CC
:100C00007A818B819C810E94360869837A838B83E9
:100C10009C8320E030E0A901C301B2010E94A20838
:100C200087FF1FC020E030E0A90169817A818B81B4
:100C30009C810E948F091816A4F42DEC3CEC4CE426
:100C40005DE3C301B2010E9494099B01AC0169817B
:100C50007A818B819C810E94360869837A838B8399
:100C60009C8369817A818B819C810E94A7088CEF8B
:100C700091E00E94380283E00E94FC012EE330E004
:100C8000DC010E940D0A2FEF33E040E050E00E94AB
:100C9000D207CA01B9016E517109810991090E94F7
:100CA000DF082B013C0160934B0170934C01809352
:100CB0004D0190934E0120E030E0A9010E948F0980
:100CC000181604F520E030E044E353E46D817E81A2
:100CD0008F8198850E94A20887FF14C02FE832EC0C
:100CE00045EF5CE3C301B2010E9494099B01AC0192
:100CF0006D817E818F8198850E9436086D837E8309
:100D00008F83988720E030E0A901C301B2010E94DF
:100D1000A20887FF1FC020E030E0A9016D817E811D
:100D20008F8198850E948F091816A4F42FE832EC61
:100D300045EF5CE3C301B2010E9494099B01AC0141
:100D40006D817E818F8198850E9436086D837E83B8
:100D50008F8398876D817E818F8198850E94A708F7
:100D60008FEF91E00E94380284E00E94FC01092E7E
:100D7000000CAA0BBB0BBC01CD0126E0660F771F50
:100D8000881F991F2A95D1F72FEF33E040E050E0FC
:100D90000E94D207CA01B901605271098109910903
:100DA0000E94DF082B013C016093470170934801CA
:100DB0008093490190934A0120E030E0A9010E940C
:100DC0008F091816D4F420E030E044E353E4C7015F
:100DD000B6010E94A20887FF10C02FE832EC45EF51
:100DE0005CE3C301B2010E9494099B01AC01C701FD
:100DF000B6010E9436086B017C0120E030E0A901B9
:100E0000C301B2010E94A20887FF19C020E030E0B0
:100E1000A901C701B6010E948F09181684F42FE8B2
:100E200032EC45EF5CE3C301B2010E9494099B01DF
:100E3000AC01C701B6010E9436086B017C01C701F5
:100E4000B6010E94A70889EF91E00E943802A7012D
:100E5000960160E070E084E393E40E9435080E940C
:100E6000A70886EF91E00E94380285E00E94FC010D
:100E70002EE330E0DC010E940D0A2FEF33E040E06A
:100E800050E00E94D207CA01B9016E51710981096F
:100E900091090E94DF082B013C016093430170938C
:100EA0004401809345019093460120E030E0A90180
:100EB0000E948F091816D4F420E030E044E353E494
:100EC000C501B4010E94A20887FF10C02FE832ECD0
:100ED00045EF5CE3C301B2010E9494099B01AC01A0
:100EE000C501B4010E9436084B015C0120E030E0EE
:100EF000A901C301B2010E94A20887FF19C020E026
:100F000030E0A901C501B4010E948F09181684F4CC
:100F10002FE832EC45EF5CE3C301B2010E94940973
:100F20009B01AC01C501B4010E9436084B015C0174
:100F3000C501B4010E94A70883EF91E00E94380226
:100F40000E9413022B013C012AE030E040E050E017
:100F500029873A874B875C870E941302DC01CB010B
:100F600084199509A609B70929853A854B855C85B9
:100F7000883E9340A105B10578F02150310941091F
:100F8000510998EE490E93E0591E611C711C211500
:100F9000310541055105E1F62115310541055105A0
:100FA000B9F6D5CD052E97FB1EF400940E94E907F3
:100FB00057FD07D00E94040807FC03D04EF40C94A0
:100FC000E90750954095309521953F4F4F4F5F4F22
:100FD000089590958095709561957F4F8F4F9F4FA5
:100FE00008950E942608A59F900DB49F900DA49F80
:100FF000800D911D11240895B7FF0C94F1070E94F4
:10100000F107821B930B0895A1E21A2EAA1BBB1BAA
:10101000FD010DC0AA1FBB1FEE1FFF1FA217B307C4
:10102000E407F50720F0A21BB30BE40BF50B661FDA
:10103000771F881F991F1A9469F76095709580959E
:1010400090959B01AC01BD01CF010895A29FB00115
:10105000B39FC001A39F700D811D1124911DB29FEC
:10106000700D811D1124911D08955058BB27AA278A
:101070000E944D080C9455090E94470938F00E94BF
:101080004E0920F039F49F3F19F426F40C944409DA
:101090000EF4E095E7FB0C943E09E92F0E946609E7
:1010A00058F3BA17620773078407950720F079F49D
:1010B000A6F50C9488090EF4E0950B2EBA2FA02DFE
:1010C0000B01B90190010C01CA01A0011124FF27F5
:1010D000591B99F0593F50F4503E68F11A16F040F0
:1010E000A22F232F342F4427585FF3CF46953795EF
:1010F0002795A795F0405395C9F77EF41F16BA0BB4
:10110000620B730B840BBAF09150A1F0FF0FBB1F61
:10111000661F771F881FC2F70EC0BA0F621F731FAA
:10112000841F48F4879577956795B795F7959E3F07
:1011300008F0B0CF9395880F08F09927EE0F979598
:10114000879508950E941A0908F481E008950E9485
:10115000AE086894B1110C94890908950E946E0933
:1011600088F09F5798F0B92F9927B751B0F0E1F068
:10117000660F771F881F991F1AF0BA95C9F714C018
:10118000B13091F00E948809B1E008950C9488096B
:10119000672F782F8827B85F39F0B93FCCF3869551
:1011A00077956795B395D9F73EF4909580957095AE
:1011B00061957F4F8F4F9F4F0895E89409C097FB2B
:1011C0003EF490958095709561957F4F8F4F9F4F1E
:1011D0009923A9F0F92F96E9BB279395F695879562
:1011E00077956795B795F111F8CFFAF4BB0F11F425
:1011F00060FF1BC06F5F7F4F8F4F9F4F16C08823CC
:1012000011F096E911C0772321F09EE8872F762F01
:1012100005C0662371F096E8862F70E060E02AF042
:101220009A95660F771F881FDAF7880F969587952E
:1012300097F90895990F0008550FAA0BE0E8FEEF03
:1012400016161706E807F907C0F012161306E4078A
:10125000F50798F0621B730B840B950B39F40A2683
:1012600061F0232B242B252B21F408950A2609F461
:10127000A140A6958FEF811D811D089597F99F6765
:1012800080E870E060E008959FEF80EC089500240E
:101290000A941616170618060906089500240A94DB
:1012A00012161306140605060895092E0394000C61
:1012B00011F4882352F0BB0F40F4BF2B11F460FFF0
:1012C00004C06F5F7F4F8F4F9F4F089557FD905819
:1012D000440F551F59F05F3F71F04795880F97FBFA
:1012E000991F61F09F3F79F08795089512161306B4
:1012F0001406551FF2CF4695F1DF08C016161706E3
:101300001806991FF1CF8695710561050894089517
:10131000E894BB2766277727CB0197F908950E94A9
:101320001A0908F48FEF08950E94A7090C94550933
:101330000E94470938F00E944E0920F0952311F0D1
:101340000C943E090C94440911240C9489090E94C0
:10135000660970F3959FC1F3950F50E0551F629F8A
:10136000F001729FBB27F00DB11D639FAA27F00DFE
:10137000B11DAA1F649F6627B00DA11D661F829F25
:101380002227B00DA11D621F739FB00DA11D621F0A
:10139000839FA00D611D221F749F3327A00D611D27
:1013A000231F849F600D211D822F762F6A2F112409
:1013B0009F5750409AF0F1F088234AF0EE0FFF1F3C
:1013C000BB1F661F771F881F91505040A9F79E3F93
:1013D000510580F00C943E090C9489095F3FE4F3B9
:1013E000983ED4F3869577956795B795F795E795E9
:1013F0009F5FC1F7FE2B880F911D9695879597F9F2
:101400000895991B79E004C0991F961708F0961B60
:10141000881F7A95C9F7809508950E942608B7FF1E
:101420000895821B930B0895EE0FFF1F0590F49112
:10143000E02D099481E090E0F8940C941F0AF89450
:02144000FFCFDC
:101442005A00000000003D01A600D50084010601FB
:04145200E400F800BA
:00000001FF
